{
  "contractName": "ChainMyVote",
  "abi": [
    {
      "inputs": [],
      "stateMutability": "nonpayable",
      "type": "constructor"
    },
    {
      "anonymous": false,
      "inputs": [
        {
          "components": [
            {
              "internalType": "uint256",
              "name": "id",
              "type": "uint256"
            },
            {
              "internalType": "string",
              "name": "title",
              "type": "string"
            },
            {
              "internalType": "string",
              "name": "_address",
              "type": "string"
            },
            {
              "internalType": "string",
              "name": "party",
              "type": "string"
            },
            {
              "internalType": "string",
              "name": "logo",
              "type": "string"
            }
          ],
          "indexed": false,
          "internalType": "struct ChainMyVote.Candidate",
          "name": "candidate",
          "type": "tuple"
        }
      ],
      "name": "CandidateAdded",
      "type": "event"
    },
    {
      "anonymous": false,
      "inputs": [
        {
          "components": [
            {
              "internalType": "uint256",
              "name": "id",
              "type": "uint256"
            },
            {
              "internalType": "string",
              "name": "title",
              "type": "string"
            },
            {
              "internalType": "string",
              "name": "_address",
              "type": "string"
            },
            {
              "internalType": "string",
              "name": "party",
              "type": "string"
            },
            {
              "internalType": "string",
              "name": "logo",
              "type": "string"
            }
          ],
          "indexed": false,
          "internalType": "struct ChainMyVote.Candidate[]",
          "name": "winners",
          "type": "tuple[]"
        }
      ],
      "name": "ElectionsFinished",
      "type": "event"
    },
    {
      "anonymous": false,
      "inputs": [
        {
          "indexed": false,
          "internalType": "bool",
          "name": "success",
          "type": "bool"
        }
      ],
      "name": "VoteCast",
      "type": "event"
    },
    {
      "anonymous": false,
      "inputs": [
        {
          "components": [
            {
              "internalType": "uint256",
              "name": "id",
              "type": "uint256"
            },
            {
              "internalType": "string",
              "name": "brpNumber",
              "type": "string"
            },
            {
              "internalType": "string",
              "name": "email",
              "type": "string"
            },
            {
              "internalType": "string",
              "name": "firstName",
              "type": "string"
            },
            {
              "internalType": "string",
              "name": "lastName",
              "type": "string"
            },
            {
              "internalType": "string",
              "name": "brpPicture",
              "type": "string"
            },
            {
              "internalType": "bool",
              "name": "verified",
              "type": "bool"
            }
          ],
          "indexed": false,
          "internalType": "struct ChainMyVote.Voter",
          "name": "",
          "type": "tuple"
        }
      ],
      "name": "VoterAdded",
      "type": "event"
    },
    {
      "anonymous": false,
      "inputs": [
        {
          "components": [
            {
              "internalType": "uint256",
              "name": "id",
              "type": "uint256"
            },
            {
              "internalType": "string",
              "name": "brpNumber",
              "type": "string"
            },
            {
              "internalType": "string",
              "name": "email",
              "type": "string"
            },
            {
              "internalType": "string",
              "name": "firstName",
              "type": "string"
            },
            {
              "internalType": "string",
              "name": "lastName",
              "type": "string"
            },
            {
              "internalType": "string",
              "name": "brpPicture",
              "type": "string"
            },
            {
              "internalType": "bool",
              "name": "verified",
              "type": "bool"
            }
          ],
          "indexed": false,
          "internalType": "struct ChainMyVote.Voter",
          "name": "",
          "type": "tuple"
        }
      ],
      "name": "VoterVerified",
      "type": "event"
    },
    {
      "inputs": [
        {
          "internalType": "string",
          "name": "title",
          "type": "string"
        },
        {
          "internalType": "string",
          "name": "_address",
          "type": "string"
        },
        {
          "internalType": "string",
          "name": "party",
          "type": "string"
        },
        {
          "internalType": "string",
          "name": "logo",
          "type": "string"
        }
      ],
      "name": "addCandidate",
      "outputs": [],
      "stateMutability": "nonpayable",
      "type": "function"
    },
    {
      "inputs": [],
      "name": "getCandidates",
      "outputs": [
        {
          "components": [
            {
              "internalType": "uint256",
              "name": "id",
              "type": "uint256"
            },
            {
              "internalType": "string",
              "name": "title",
              "type": "string"
            },
            {
              "internalType": "string",
              "name": "_address",
              "type": "string"
            },
            {
              "internalType": "string",
              "name": "party",
              "type": "string"
            },
            {
              "internalType": "string",
              "name": "logo",
              "type": "string"
            }
          ],
          "internalType": "struct ChainMyVote.Candidate[]",
          "name": "",
          "type": "tuple[]"
        }
      ],
      "stateMutability": "view",
      "type": "function",
      "constant": true
    },
    {
      "inputs": [
        {
          "internalType": "string",
          "name": "brpNumber",
          "type": "string"
        },
        {
          "internalType": "string",
          "name": "email",
          "type": "string"
        },
        {
          "internalType": "string",
          "name": "firstName",
          "type": "string"
        },
        {
          "internalType": "string",
          "name": "lastName",
          "type": "string"
        },
        {
          "internalType": "string",
          "name": "brpPicture",
          "type": "string"
        }
      ],
      "name": "addVoter",
      "outputs": [],
      "stateMutability": "nonpayable",
      "type": "function"
    },
    {
      "inputs": [
        {
          "components": [
            {
              "internalType": "uint256",
              "name": "id",
              "type": "uint256"
            },
            {
              "internalType": "string",
              "name": "brpNumber",
              "type": "string"
            },
            {
              "internalType": "string",
              "name": "email",
              "type": "string"
            },
            {
              "internalType": "string",
              "name": "firstName",
              "type": "string"
            },
            {
              "internalType": "string",
              "name": "lastName",
              "type": "string"
            },
            {
              "internalType": "string",
              "name": "brpPicture",
              "type": "string"
            },
            {
              "internalType": "bool",
              "name": "verified",
              "type": "bool"
            }
          ],
          "internalType": "struct ChainMyVote.Voter",
          "name": "voter",
          "type": "tuple"
        }
      ],
      "name": "verifyVoter",
      "outputs": [],
      "stateMutability": "nonpayable",
      "type": "function"
    },
    {
      "inputs": [],
      "name": "getVoters",
      "outputs": [
        {
          "components": [
            {
              "internalType": "uint256",
              "name": "id",
              "type": "uint256"
            },
            {
              "internalType": "string",
              "name": "brpNumber",
              "type": "string"
            },
            {
              "internalType": "string",
              "name": "email",
              "type": "string"
            },
            {
              "internalType": "string",
              "name": "firstName",
              "type": "string"
            },
            {
              "internalType": "string",
              "name": "lastName",
              "type": "string"
            },
            {
              "internalType": "string",
              "name": "brpPicture",
              "type": "string"
            },
            {
              "internalType": "bool",
              "name": "verified",
              "type": "bool"
            }
          ],
          "internalType": "struct ChainMyVote.Voter[]",
          "name": "",
          "type": "tuple[]"
        }
      ],
      "stateMutability": "view",
      "type": "function",
      "constant": true
    },
    {
      "inputs": [],
      "name": "getVoterStatus",
      "outputs": [
        {
          "internalType": "string",
          "name": "",
          "type": "string"
        }
      ],
      "stateMutability": "view",
      "type": "function",
      "constant": true
    },
    {
      "inputs": [
        {
          "internalType": "uint256",
          "name": "candidateId",
          "type": "uint256"
        }
      ],
      "name": "castVote",
      "outputs": [],
      "stateMutability": "nonpayable",
      "type": "function"
    },
    {
      "inputs": [
        {
          "internalType": "uint256",
          "name": "candidateId",
          "type": "uint256"
        }
      ],
      "name": "getVotes",
      "outputs": [
        {
          "internalType": "uint256",
          "name": "",
          "type": "uint256"
        }
      ],
      "stateMutability": "view",
      "type": "function",
      "constant": true
    },
    {
      "inputs": [],
      "name": "finishElections",
      "outputs": [],
      "stateMutability": "nonpayable",
      "type": "function"
    },
    {
      "inputs": [],
      "name": "areElectionsFinished",
      "outputs": [
        {
          "internalType": "bool",
          "name": "",
          "type": "bool"
        }
      ],
      "stateMutability": "view",
      "type": "function",
      "constant": true
    },
    {
      "inputs": [],
      "name": "getWinners",
      "outputs": [
        {
          "components": [
            {
              "internalType": "uint256",
              "name": "id",
              "type": "uint256"
            },
            {
              "internalType": "string",
              "name": "title",
              "type": "string"
            },
            {
              "internalType": "string",
              "name": "_address",
              "type": "string"
            },
            {
              "internalType": "string",
              "name": "party",
              "type": "string"
            },
            {
              "internalType": "string",
              "name": "logo",
              "type": "string"
            }
          ],
          "internalType": "struct ChainMyVote.Candidate[]",
          "name": "",
          "type": "tuple[]"
        }
      ],
      "stateMutability": "view",
      "type": "function",
      "constant": true
    },
    {
      "inputs": [],
      "name": "getAccountStatus",
      "outputs": [
        {
          "components": [
            {
              "internalType": "string",
              "name": "accountType",
              "type": "string"
            },
            {
              "internalType": "bool",
              "name": "electionsFinished",
              "type": "bool"
            },
            {
              "internalType": "string",
              "name": "voteStatus",
              "type": "string"
            }
          ],
          "internalType": "struct ChainMyVote.AccountStatus",
          "name": "",
          "type": "tuple"
        }
      ],
      "stateMutability": "view",
      "type": "function",
      "constant": true
    }
  ],
  "bytecode": "0x608060405234801561001057600080fd5b50336000806101000a81548173ffffffffffffffffffffffffffffffffffffffff021916908373ffffffffffffffffffffffffffffffffffffffff1602179055506142fd806100606000396000f3fe608060405234801561001057600080fd5b50600436106100b45760003560e01c806382ffe6101161007157806382ffe61014610153578063cdd7225314610171578063df15c37e1461018f578063f731d0e9146101ad578063ff981099146101c9578063ffe172c0146101f9576100b4565b806306a49fce146100b95780631b7035ea146100d7578063247c8541146100f55780633eb76b9c1461011157806342b03cc91461012d57806375099e7e14610149575b600080fd5b6100c1610217565b6040516100ce9190613070565b60405180910390f35b6100df610518565b6040516100ec9190613104565b60405180910390f35b61010f600480360381019061010a9190613411565b610b99565b005b61012b6004803603810190610126919061345a565b6112c6565b005b61014760048036038101906101429190613487565b6113d2565b005b6101516115dc565b005b61015b611ad6565b604051610168919061356d565b60405180910390f35b610179611aed565b6040516101869190613702565b60405180910390f35b610197611ffa565b6040516101a49190613070565b60405180910390f35b6101c760048036038101906101c29190613724565b6122fa565b005b6101e360048036038101906101de919061345a565b61279c565b6040516101f0919061383a565b60405180910390f35b610201612848565b60405161020e919061389f565b60405180910390f35b6060600d60009054906101000a900460ff1615610269576040517f08c379a00000000000000000000000000000000000000000000000000000000081526004016102609061390d565b60405180910390fd5b6003805480602002602001604051908101604052809291908181526020016000905b8282101561050f57838290600052602060002090600502016040518060a0016040529081600082015481526020016001820180546102c89061395c565b80601f01602080910402602001604051908101604052809291908181526020018280546102f49061395c565b80156103415780601f1061031657610100808354040283529160200191610341565b820191906000526020600020905b81548152906001019060200180831161032457829003601f168201915b5050505050815260200160028201805461035a9061395c565b80601f01602080910402602001604051908101604052809291908181526020018280546103869061395c565b80156103d35780601f106103a8576101008083540402835291602001916103d3565b820191906000526020600020905b8154815290600101906020018083116103b657829003601f168201915b505050505081526020016003820180546103ec9061395c565b80601f01602080910402602001604051908101604052809291908181526020018280546104189061395c565b80156104655780601f1061043a57610100808354040283529160200191610465565b820191906000526020600020905b81548152906001019060200180831161044857829003601f168201915b5050505050815260200160048201805461047e9061395c565b80601f01602080910402602001604051908101604052809291908181526020018280546104aa9061395c565b80156104f75780601f106104cc576101008083540402835291602001916104f7565b820191906000526020600020905b8154815290600101906020018083116104da57829003601f168201915b5050505050815250508152602001906001019061028b565b50505050905090565b610520612e18565b606060006040518060400160405280600481526020017f4e494c4c00000000000000000000000000000000000000000000000000000000815250905060008054906101000a900473ffffffffffffffffffffffffffffffffffffffff1673ffffffffffffffffffffffffffffffffffffffff163373ffffffffffffffffffffffffffffffffffffffff16036105ec576040518060400160405280600581526020017f6f776e65720000000000000000000000000000000000000000000000000000008152509150610b66565b600760003373ffffffffffffffffffffffffffffffffffffffff1673ffffffffffffffffffffffffffffffffffffffff16815260200190815260200160002060009054906101000a900460ff1615610b2c576040518060400160405280600581526020017f766f7465720000000000000000000000000000000000000000000000000000008152509150600c60003373ffffffffffffffffffffffffffffffffffffffff1673ffffffffffffffffffffffffffffffffffffffff16815260200190815260200160002060009054906101000a900460ff1615610705576040518060400160405280600981526020017f766f74652d6361737400000000000000000000000000000000000000000000008152509050610b27565b600760003373ffffffffffffffffffffffffffffffffffffffff1673ffffffffffffffffffffffffffffffffffffffff16815260200190815260200160002060009054906101000a900460ff1615610b26576000600860003373ffffffffffffffffffffffffffffffffffffffff1673ffffffffffffffffffffffffffffffffffffffff1681526020019081526020016000206040518060e0016040529081600082015481526020016001820180546107bd9061395c565b80601f01602080910402602001604051908101604052809291908181526020018280546107e99061395c565b80156108365780601f1061080b57610100808354040283529160200191610836565b820191906000526020600020905b81548152906001019060200180831161081957829003601f168201915b5050505050815260200160028201805461084f9061395c565b80601f016020809104026020016040519081016040528092919081815260200182805461087b9061395c565b80156108c85780601f1061089d576101008083540402835291602001916108c8565b820191906000526020600020905b8154815290600101906020018083116108ab57829003601f168201915b505050505081526020016003820180546108e19061395c565b80601f016020809104026020016040519081016040528092919081815260200182805461090d9061395c565b801561095a5780601f1061092f5761010080835404028352916020019161095a565b820191906000526020600020905b81548152906001019060200180831161093d57829003601f168201915b505050505081526020016004820180546109739061395c565b80601f016020809104026020016040519081016040528092919081815260200182805461099f9061395c565b80156109ec5780601f106109c1576101008083540402835291602001916109ec565b820191906000526020600020905b8154815290600101906020018083116109cf57829003601f168201915b50505050508152602001600582018054610a059061395c565b80601f0160208091040260200160405190810160405280929190818152602001828054610a319061395c565b8015610a7e5780601f10610a5357610100808354040283529160200191610a7e565b820191906000526020600020905b815481529060010190602001808311610a6157829003601f168201915b505050505081526020016006820160009054906101000a900460ff16151515158152505090508060c0015115610aeb576040518060400160405280600881526020017f76657269666965640000000000000000000000000000000000000000000000008152509150610b24565b6040518060400160405280600a81526020017f756e76657269666965640000000000000000000000000000000000000000000081525091505b505b5b610b65565b6040518060400160405280600c81526020017f756e72656769737465726564000000000000000000000000000000000000000081525091505b5b6040518060600160405280838152602001600d60009054906101000a900460ff1615158152602001828152509250505090565b600d60009054906101000a900460ff1615610be9576040517f08c379a0000000000000000000000000000000000000000000000000000000008152600401610be09061390d565b60405180910390fd5b60008054906101000a900473ffffffffffffffffffffffffffffffffffffffff1673ffffffffffffffffffffffffffffffffffffffff163373ffffffffffffffffffffffffffffffffffffffff1614610c77576040517f08c379a0000000000000000000000000000000000000000000000000000000008152600401610c6e906139d9565b60405180910390fd5b8060000151600a600082815260200190815260200160002060009054906101000a900460ff16610cdc576040517f08c379a0000000000000000000000000000000000000000000000000000000008152600401610cd390613a45565b60405180910390fd5b8160200151600681604051610cf19190613aa1565b908152602001604051809103902060009054906101000a900460ff1615610d4d576040517f08c379a0000000000000000000000000000000000000000000000000000000008152600401610d4490613b04565b60405180910390fd5b600060096000856000015181526020019081526020016000206040518060e001604052908160008201548152602001600182018054610d8b9061395c565b80601f0160208091040260200160405190810160405280929190818152602001828054610db79061395c565b8015610e045780601f10610dd957610100808354040283529160200191610e04565b820191906000526020600020905b815481529060010190602001808311610de757829003601f168201915b50505050508152602001600282018054610e1d9061395c565b80601f0160208091040260200160405190810160405280929190818152602001828054610e499061395c565b8015610e965780601f10610e6b57610100808354040283529160200191610e96565b820191906000526020600020905b815481529060010190602001808311610e7957829003601f168201915b50505050508152602001600382018054610eaf9061395c565b80601f0160208091040260200160405190810160405280929190818152602001828054610edb9061395c565b8015610f285780601f10610efd57610100808354040283529160200191610f28565b820191906000526020600020905b815481529060010190602001808311610f0b57829003601f168201915b50505050508152602001600482018054610f419061395c565b80601f0160208091040260200160405190810160405280929190818152602001828054610f6d9061395c565b8015610fba5780601f10610f8f57610100808354040283529160200191610fba565b820191906000526020600020905b815481529060010190602001808311610f9d57829003601f168201915b50505050508152602001600582018054610fd39061395c565b80601f0160208091040260200160405190810160405280929190818152602001828054610fff9061395c565b801561104c5780601f106110215761010080835404028352916020019161104c565b820191906000526020600020905b81548152906001019060200180831161102f57829003601f168201915b505050505081526020016006820160009054906101000a900460ff161515151581525050905060018160c00190151590811515815250506001600682602001516040516110999190613aa1565b908152602001604051809103902060006101000a81548160ff0219169083151502179055506000600b60008360000151815260200190815260200160002060009054906101000a900473ffffffffffffffffffffffffffffffffffffffff1690508160096000846000015181526020019081526020016000206000820151816000015560208201518160010190816111319190613cd0565b5060408201518160020190816111479190613cd0565b50606082015181600301908161115d9190613cd0565b5060808201518160040190816111739190613cd0565b5060a08201518160050190816111899190613cd0565b5060c08201518160060160006101000a81548160ff02191690831515021790555090505081600860008373ffffffffffffffffffffffffffffffffffffffff1673ffffffffffffffffffffffffffffffffffffffff16815260200190815260200160002060008201518160000155602082015181600101908161120c9190613cd0565b5060408201518160020190816112229190613cd0565b5060608201518160030190816112389190613cd0565b50608082015181600401908161124e9190613cd0565b5060a08201518160050190816112649190613cd0565b5060c08201518160060160006101000a81548160ff0219169083151502179055509050507f098708c5bceb74d878cc251d7989f5f613b16835fa2f319d17325a3ca0df4f0a826040516112b79190613e5a565b60405180910390a15050505050565b600d60009054906101000a900460ff1615611316576040517f08c379a000000000000000000000000000000000000000000000000000000000815260040161130d9061390d565b60405180910390fd5b60046000828152602001908152602001600020600081548092919061133a90613eab565b91905055506001600c60003373ffffffffffffffffffffffffffffffffffffffff1673ffffffffffffffffffffffffffffffffffffffff16815260200190815260200160002060006101000a81548160ff0219169083151502179055507f99b853ccfa66a05cd7e4db61020aa1e034c4aa3e1c9111adb86eef8fa3f99f7360016040516113c7919061356d565b60405180910390a150565b600d60009054906101000a900460ff1615611422576040517f08c379a00000000000000000000000000000000000000000000000000000000081526004016114199061390d565b60405180910390fd5b60008054906101000a900473ffffffffffffffffffffffffffffffffffffffff1673ffffffffffffffffffffffffffffffffffffffff163373ffffffffffffffffffffffffffffffffffffffff16146114b0576040517f08c379a00000000000000000000000000000000000000000000000000000000081526004016114a7906139d9565b60405180910390fd5b60006001600081546114c190613eab565b919050819055905060006040518060a00160405280838152602001878152602001868152602001858152602001848152509050600381908060018154018082558091505060019003906000526020600020906005020160009091909190915060008201518160000155602082015181600101908161153f9190613cd0565b5060408201518160020190816115559190613cd0565b50606082015181600301908161156b9190613cd0565b5060808201518160040190816115819190613cd0565b505050600060046000848152602001908152602001600020819055507fa9ed462170f82552afb3df67b16ffeff6c98e622175e798bd9b50fe32fed1c86816040516115cc9190613f7e565b60405180910390a1505050505050565b600d60009054906101000a900460ff161561162c576040517f08c379a00000000000000000000000000000000000000000000000000000000081526004016116239061390d565b60405180910390fd5b60008054906101000a900473ffffffffffffffffffffffffffffffffffffffff1673ffffffffffffffffffffffffffffffffffffffff163373ffffffffffffffffffffffffffffffffffffffff16146116ba576040517f08c379a00000000000000000000000000000000000000000000000000000000081526004016116b1906139d9565b60405180910390fd5b6000805b60038054905081101561172857600060046000600384815481106116e5576116e4613fa0565b5b906000526020600020906005020160000154815260200190815260200160002054905082811115611714578092505b50808061172090613eab565b9150506116be565b5060005b600380549050811015611a7f5760006003828154811061174f5761174e613fa0565b5b90600052602060002090600502016040518060a0016040529081600082015481526020016001820180546117829061395c565b80601f01602080910402602001604051908101604052809291908181526020018280546117ae9061395c565b80156117fb5780601f106117d0576101008083540402835291602001916117fb565b820191906000526020600020905b8154815290600101906020018083116117de57829003601f168201915b505050505081526020016002820180546118149061395c565b80601f01602080910402602001604051908101604052809291908181526020018280546118409061395c565b801561188d5780601f106118625761010080835404028352916020019161188d565b820191906000526020600020905b81548152906001019060200180831161187057829003601f168201915b505050505081526020016003820180546118a69061395c565b80601f01602080910402602001604051908101604052809291908181526020018280546118d29061395c565b801561191f5780601f106118f45761010080835404028352916020019161191f565b820191906000526020600020905b81548152906001019060200180831161190257829003601f168201915b505050505081526020016004820180546119389061395c565b80601f01602080910402602001604051908101604052809291908181526020018280546119649061395c565b80156119b15780601f10611986576101008083540402835291602001916119b1565b820191906000526020600020905b81548152906001019060200180831161199457829003601f168201915b50505050508152505090508260046000836000015181526020019081526020016000205403611a6b57600e819080600181540180825580915050600190039060005260206000209060050201600090919091909150600082015181600001556020820151816001019081611a259190613cd0565b506040820151816002019081611a3b9190613cd0565b506060820151816003019081611a519190613cd0565b506080820151816004019081611a679190613cd0565b5050505b508080611a7790613eab565b91505061172c565b506001600d60006101000a81548160ff0219169083151502179055507fca51c396fb82a6117b9d4ab984ed10ebdcca5dfedfb56322b5b558ad07d72ae3600e604051611acb91906141cd565b60405180910390a150565b6000600d60009054906101000a900460ff16905090565b6060600d60009054906101000a900460ff1615611b3f576040517f08c379a0000000000000000000000000000000000000000000000000000000008152600401611b369061390d565b60405180910390fd5b60008054906101000a900473ffffffffffffffffffffffffffffffffffffffff1673ffffffffffffffffffffffffffffffffffffffff163373ffffffffffffffffffffffffffffffffffffffff1614611bcd576040517f08c379a0000000000000000000000000000000000000000000000000000000008152600401611bc4906139d9565b60405180910390fd5b600060058054905067ffffffffffffffff811115611bee57611bed61313f565b5b604051908082528060200260200182016040528015611c2757816020015b611c14612e3b565b815260200190600190039081611c0c5790505b50905060005b600580549050811015611ff2576008600060058381548110611c5257611c51613fa0565b5b9060005260206000200160009054906101000a900473ffffffffffffffffffffffffffffffffffffffff1673ffffffffffffffffffffffffffffffffffffffff1673ffffffffffffffffffffffffffffffffffffffff1681526020019081526020016000206040518060e001604052908160008201548152602001600182018054611cdc9061395c565b80601f0160208091040260200160405190810160405280929190818152602001828054611d089061395c565b8015611d555780601f10611d2a57610100808354040283529160200191611d55565b820191906000526020600020905b815481529060010190602001808311611d3857829003601f168201915b50505050508152602001600282018054611d6e9061395c565b80601f0160208091040260200160405190810160405280929190818152602001828054611d9a9061395c565b8015611de75780601f10611dbc57610100808354040283529160200191611de7565b820191906000526020600020905b815481529060010190602001808311611dca57829003601f168201915b50505050508152602001600382018054611e009061395c565b80601f0160208091040260200160405190810160405280929190818152602001828054611e2c9061395c565b8015611e795780601f10611e4e57610100808354040283529160200191611e79565b820191906000526020600020905b815481529060010190602001808311611e5c57829003601f168201915b50505050508152602001600482018054611e929061395c565b80601f0160208091040260200160405190810160405280929190818152602001828054611ebe9061395c565b8015611f0b5780601f10611ee057610100808354040283529160200191611f0b565b820191906000526020600020905b815481529060010190602001808311611eee57829003601f168201915b50505050508152602001600582018054611f249061395c565b80601f0160208091040260200160405190810160405280929190818152602001828054611f509061395c565b8015611f9d5780601f10611f7257610100808354040283529160200191611f9d565b820191906000526020600020905b815481529060010190602001808311611f8057829003601f168201915b505050505081526020016006820160009054906101000a900460ff161515151581525050828281518110611fd457611fd3613fa0565b5b60200260200101819052508080611fea90613eab565b915050611c2d565b508091505090565b6060600d60009054906101000a900460ff1661204b576040517f08c379a00000000000000000000000000000000000000000000000000000000081526004016120429061423b565b60405180910390fd5b600e805480602002602001604051908101604052809291908181526020016000905b828210156122f157838290600052602060002090600502016040518060a0016040529081600082015481526020016001820180546120aa9061395c565b80601f01602080910402602001604051908101604052809291908181526020018280546120d69061395c565b80156121235780601f106120f857610100808354040283529160200191612123565b820191906000526020600020905b81548152906001019060200180831161210657829003601f168201915b5050505050815260200160028201805461213c9061395c565b80601f01602080910402602001604051908101604052809291908181526020018280546121689061395c565b80156121b55780601f1061218a576101008083540402835291602001916121b5565b820191906000526020600020905b81548152906001019060200180831161219857829003601f168201915b505050505081526020016003820180546121ce9061395c565b80601f01602080910402602001604051908101604052809291908181526020018280546121fa9061395c565b80156122475780601f1061221c57610100808354040283529160200191612247565b820191906000526020600020905b81548152906001019060200180831161222a57829003601f168201915b505050505081526020016004820180546122609061395c565b80601f016020809104026020016040519081016040528092919081815260200182805461228c9061395c565b80156122d95780601f106122ae576101008083540402835291602001916122d9565b820191906000526020600020905b8154815290600101906020018083116122bc57829003601f168201915b5050505050815250508152602001906001019061206d565b50505050905090565b600d60009054906101000a900460ff161561234a576040517f08c379a00000000000000000000000000000000000000000000000000000000081526004016123419061390d565b60405180910390fd5b60008054906101000a900473ffffffffffffffffffffffffffffffffffffffff1673ffffffffffffffffffffffffffffffffffffffff163373ffffffffffffffffffffffffffffffffffffffff16036123d8576040517f08c379a00000000000000000000000000000000000000000000000000000000081526004016123cf906142a7565b60405180910390fd5b846006816040516123e99190613aa1565b908152602001604051809103902060009054906101000a900460ff1615612445576040517f08c379a000000000000000000000000000000000000000000000000000000000815260040161243c90613b04565b60405180910390fd5b600060026000815461245690613eab565b919050819055905060006040518060e001604052808381526020018981526020018881526020018781526020018681526020018581526020016000151581525090506005339080600181540180825580915050600190039060005260206000200160009091909190916101000a81548173ffffffffffffffffffffffffffffffffffffffff021916908373ffffffffffffffffffffffffffffffffffffffff1602179055506001600760003373ffffffffffffffffffffffffffffffffffffffff1673ffffffffffffffffffffffffffffffffffffffff16815260200190815260200160002060006101000a81548160ff02191690831515021790555080600860003373ffffffffffffffffffffffffffffffffffffffff1673ffffffffffffffffffffffffffffffffffffffff1681526020019081526020016000206000820151816000015560208201518160010190816125b29190613cd0565b5060408201518160020190816125c89190613cd0565b5060608201518160030190816125de9190613cd0565b5060808201518160040190816125f49190613cd0565b5060a082015181600501908161260a9190613cd0565b5060c08201518160060160006101000a81548160ff02191690831515021790555090505080600960008481526020019081526020016000206000820151816000015560208201518160010190816126619190613cd0565b5060408201518160020190816126779190613cd0565b50606082015181600301908161268d9190613cd0565b5060808201518160040190816126a39190613cd0565b5060a08201518160050190816126b99190613cd0565b5060c08201518160060160006101000a81548160ff0219169083151502179055509050506001600a600084815260200190815260200160002060006101000a81548160ff02191690831515021790555033600b600084815260200190815260200160002060006101000a81548173ffffffffffffffffffffffffffffffffffffffff021916908373ffffffffffffffffffffffffffffffffffffffff1602179055507fa763d8f3c83d258b4ce0df47e2046ed0cb721a546a04bf2865920a5d1832133f8160405161278a9190613e5a565b60405180910390a15050505050505050565b60008060009054906101000a900473ffffffffffffffffffffffffffffffffffffffff1673ffffffffffffffffffffffffffffffffffffffff163373ffffffffffffffffffffffffffffffffffffffff161461282d576040517f08c379a0000000000000000000000000000000000000000000000000000000008152600401612824906139d9565b60405180910390fd5b60046000838152602001908152602001600020549050919050565b6060600d60009054906101000a900460ff161561289a576040517f08c379a00000000000000000000000000000000000000000000000000000000081526004016128919061390d565b60405180910390fd5b60008054906101000a900473ffffffffffffffffffffffffffffffffffffffff1673ffffffffffffffffffffffffffffffffffffffff163373ffffffffffffffffffffffffffffffffffffffff1603612928576040517f08c379a000000000000000000000000000000000000000000000000000000000815260040161291f906142a7565b60405180910390fd5b600c60003373ffffffffffffffffffffffffffffffffffffffff1673ffffffffffffffffffffffffffffffffffffffff16815260200190815260200160002060009054906101000a900460ff16156129b7576040518060400160405280600981526020017f766f74652d6361737400000000000000000000000000000000000000000000008152509050612e15565b600760003373ffffffffffffffffffffffffffffffffffffffff1673ffffffffffffffffffffffffffffffffffffffff16815260200190815260200160002060009054906101000a900460ff1615612ddc576000600860003373ffffffffffffffffffffffffffffffffffffffff1673ffffffffffffffffffffffffffffffffffffffff1681526020019081526020016000206040518060e001604052908160008201548152602001600182018054612a6f9061395c565b80601f0160208091040260200160405190810160405280929190818152602001828054612a9b9061395c565b8015612ae85780601f10612abd57610100808354040283529160200191612ae8565b820191906000526020600020905b815481529060010190602001808311612acb57829003601f168201915b50505050508152602001600282018054612b019061395c565b80601f0160208091040260200160405190810160405280929190818152602001828054612b2d9061395c565b8015612b7a5780601f10612b4f57610100808354040283529160200191612b7a565b820191906000526020600020905b815481529060010190602001808311612b5d57829003601f168201915b50505050508152602001600382018054612b939061395c565b80601f0160208091040260200160405190810160405280929190818152602001828054612bbf9061395c565b8015612c0c5780601f10612be157610100808354040283529160200191612c0c565b820191906000526020600020905b815481529060010190602001808311612bef57829003601f168201915b50505050508152602001600482018054612c259061395c565b80601f0160208091040260200160405190810160405280929190818152602001828054612c519061395c565b8015612c9e5780601f10612c7357610100808354040283529160200191612c9e565b820191906000526020600020905b815481529060010190602001808311612c8157829003601f168201915b50505050508152602001600582018054612cb79061395c565b80601f0160208091040260200160405190810160405280929190818152602001828054612ce39061395c565b8015612d305780601f10612d0557610100808354040283529160200191612d30565b820191906000526020600020905b815481529060010190602001808311612d1357829003601f168201915b505050505081526020016006820160009054906101000a900460ff16151515158152505090508060c0015115612d9e576040518060400160405280600881526020017f7665726966696564000000000000000000000000000000000000000000000000815250915050612e15565b6040518060400160405280600a81526020017f756e766572696669656400000000000000000000000000000000000000000000815250915050612e15565b6040518060400160405280600c81526020017f756e72656769737465726564000000000000000000000000000000000000000081525090505b90565b604051806060016040528060608152602001600015158152602001606081525090565b6040518060e001604052806000815260200160608152602001606081526020016060815260200160608152602001606081526020016000151581525090565b600081519050919050565b600082825260208201905092915050565b6000819050602082019050919050565b6000819050919050565b612eb981612ea6565b82525050565b600081519050919050565b600082825260208201905092915050565b60005b83811015612ef9578082015181840152602081019050612ede565b60008484015250505050565b6000601f19601f8301169050919050565b6000612f2182612ebf565b612f2b8185612eca565b9350612f3b818560208601612edb565b612f4481612f05565b840191505092915050565b600060a083016000830151612f676000860182612eb0565b5060208301518482036020860152612f7f8282612f16565b91505060408301518482036040860152612f998282612f16565b91505060608301518482036060860152612fb38282612f16565b91505060808301518482036080860152612fcd8282612f16565b9150508091505092915050565b6000612fe68383612f4f565b905092915050565b6000602082019050919050565b600061300682612e7a565b6130108185612e85565b93508360208202850161302285612e96565b8060005b8581101561305e578484038952815161303f8582612fda565b945061304a83612fee565b925060208a01995050600181019050613026565b50829750879550505050505092915050565b6000602082019050818103600083015261308a8184612ffb565b905092915050565b60008115159050919050565b6130a781613092565b82525050565b600060608301600083015184820360008601526130ca8282612f16565b91505060208301516130df602086018261309e565b50604083015184820360408601526130f78282612f16565b9150508091505092915050565b6000602082019050818103600083015261311e81846130ad565b905092915050565b6000604051905090565b600080fd5b600080fd5b600080fd5b7f4e487b7100000000000000000000000000000000000000000000000000000000600052604160045260246000fd5b61317782612f05565b810181811067ffffffffffffffff821117156131965761319561313f565b5b80604052505050565b60006131a9613126565b90506131b5828261316e565b919050565b600080fd5b6131c881612ea6565b81146131d357600080fd5b50565b6000813590506131e5816131bf565b92915050565b600080fd5b600080fd5b600067ffffffffffffffff8211156132105761320f61313f565b5b61321982612f05565b9050602081019050919050565b82818337600083830152505050565b6000613248613243846131f5565b61319f565b905082815260208101848484011115613264576132636131f0565b5b61326f848285613226565b509392505050565b600082601f83011261328c5761328b6131eb565b5b813561329c848260208601613235565b91505092915050565b6132ae81613092565b81146132b957600080fd5b50565b6000813590506132cb816132a5565b92915050565b600060e082840312156132e7576132e661313a565b5b6132f160e061319f565b90506000613301848285016131d6565b600083015250602082013567ffffffffffffffff811115613325576133246131ba565b5b61333184828501613277565b602083015250604082013567ffffffffffffffff811115613355576133546131ba565b5b61336184828501613277565b604083015250606082013567ffffffffffffffff811115613385576133846131ba565b5b61339184828501613277565b606083015250608082013567ffffffffffffffff8111156133b5576133b46131ba565b5b6133c184828501613277565b60808301525060a082013567ffffffffffffffff8111156133e5576133e46131ba565b5b6133f184828501613277565b60a08301525060c0613405848285016132bc565b60c08301525092915050565b60006020828403121561342757613426613130565b5b600082013567ffffffffffffffff81111561344557613444613135565b5b613451848285016132d1565b91505092915050565b6000602082840312156134705761346f613130565b5b600061347e848285016131d6565b91505092915050565b600080600080608085870312156134a1576134a0613130565b5b600085013567ffffffffffffffff8111156134bf576134be613135565b5b6134cb87828801613277565b945050602085013567ffffffffffffffff8111156134ec576134eb613135565b5b6134f887828801613277565b935050604085013567ffffffffffffffff81111561351957613518613135565b5b61352587828801613277565b925050606085013567ffffffffffffffff81111561354657613545613135565b5b61355287828801613277565b91505092959194509250565b61356781613092565b82525050565b6000602082019050613582600083018461355e565b92915050565b600081519050919050565b600082825260208201905092915050565b6000819050602082019050919050565b600060e0830160008301516135cc6000860182612eb0565b50602083015184820360208601526135e48282612f16565b915050604083015184820360408601526135fe8282612f16565b915050606083015184820360608601526136188282612f16565b915050608083015184820360808601526136328282612f16565b91505060a083015184820360a086015261364c8282612f16565b91505060c083015161366160c086018261309e565b508091505092915050565b600061367883836135b4565b905092915050565b6000602082019050919050565b600061369882613588565b6136a28185613593565b9350836020820285016136b4856135a4565b8060005b858110156136f057848403895281516136d1858261366c565b94506136dc83613680565b925060208a019950506001810190506136b8565b50829750879550505050505092915050565b6000602082019050818103600083015261371c818461368d565b905092915050565b600080600080600060a086880312156137405761373f613130565b5b600086013567ffffffffffffffff81111561375e5761375d613135565b5b61376a88828901613277565b955050602086013567ffffffffffffffff81111561378b5761378a613135565b5b61379788828901613277565b945050604086013567ffffffffffffffff8111156137b8576137b7613135565b5b6137c488828901613277565b935050606086013567ffffffffffffffff8111156137e5576137e4613135565b5b6137f188828901613277565b925050608086013567ffffffffffffffff81111561381257613811613135565b5b61381e88828901613277565b9150509295509295909350565b61383481612ea6565b82525050565b600060208201905061384f600083018461382b565b92915050565b600082825260208201905092915050565b600061387182612ebf565b61387b8185613855565b935061388b818560208601612edb565b61389481612f05565b840191505092915050565b600060208201905081810360008301526138b98184613866565b905092915050565b7f456c656374696f6e73206172652066696e69736865642e000000000000000000600082015250565b60006138f7601783613855565b9150613902826138c1565b602082019050919050565b60006020820190508181036000830152613926816138ea565b9050919050565b7f4e487b7100000000000000000000000000000000000000000000000000000000600052602260045260246000fd5b6000600282049050600182168061397457607f821691505b6020821081036139875761398661392d565b5b50919050565b7f53656e646572206973206e6f74206f776e65722e000000000000000000000000600082015250565b60006139c3601483613855565b91506139ce8261398d565b602082019050919050565b600060208201905081810360008301526139f2816139b6565b9050919050565b7f566f74657220696420646f6573206e6f742065786973742e0000000000000000600082015250565b6000613a2f601883613855565b9150613a3a826139f9565b602082019050919050565b60006020820190508181036000830152613a5e81613a22565b9050919050565b600081905092915050565b6000613a7b82612ebf565b613a858185613a65565b9350613a95818560208601612edb565b80840191505092915050565b6000613aad8284613a70565b915081905092915050565b7f566f7465722042525020616c7265616479206578697374732e00000000000000600082015250565b6000613aee601983613855565b9150613af982613ab8565b602082019050919050565b60006020820190508181036000830152613b1d81613ae1565b9050919050565b60008190508160005260206000209050919050565b60006020601f8301049050919050565b600082821b905092915050565b600060088302613b867fffffffffffffffffffffffffffffffffffffffffffffffffffffffffffffffff82613b49565b613b908683613b49565b95508019841693508086168417925050509392505050565b6000819050919050565b6000613bcd613bc8613bc384612ea6565b613ba8565b612ea6565b9050919050565b6000819050919050565b613be783613bb2565b613bfb613bf382613bd4565b848454613b56565b825550505050565b600090565b613c10613c03565b613c1b818484613bde565b505050565b5b81811015613c3f57613c34600082613c08565b600181019050613c21565b5050565b601f821115613c8457613c5581613b24565b613c5e84613b39565b81016020851015613c6d578190505b613c81613c7985613b39565b830182613c20565b50505b505050565b600082821c905092915050565b6000613ca760001984600802613c89565b1980831691505092915050565b6000613cc08383613c96565b9150826002028217905092915050565b613cd982612ebf565b67ffffffffffffffff811115613cf257613cf161313f565b5b613cfc825461395c565b613d07828285613c43565b600060209050601f831160018114613d3a5760008415613d28578287015190505b613d328582613cb4565b865550613d9a565b601f198416613d4886613b24565b60005b82811015613d7057848901518255600182019150602085019450602081019050613d4b565b86831015613d8d5784890151613d89601f891682613c96565b8355505b6001600288020188555050505b505050505050565b600060e083016000830151613dba6000860182612eb0565b5060208301518482036020860152613dd28282612f16565b91505060408301518482036040860152613dec8282612f16565b91505060608301518482036060860152613e068282612f16565b91505060808301518482036080860152613e208282612f16565b91505060a083015184820360a0860152613e3a8282612f16565b91505060c0830151613e4f60c086018261309e565b508091505092915050565b60006020820190508181036000830152613e748184613da2565b905092915050565b7f4e487b7100000000000000000000000000000000000000000000000000000000600052601160045260246000fd5b6000613eb682612ea6565b91507fffffffffffffffffffffffffffffffffffffffffffffffffffffffffffffffff8203613ee857613ee7613e7c565b5b600182019050919050565b600060a083016000830151613f0b6000860182612eb0565b5060208301518482036020860152613f238282612f16565b91505060408301518482036040860152613f3d8282612f16565b91505060608301518482036060860152613f578282612f16565b91505060808301518482036080860152613f718282612f16565b9150508091505092915050565b60006020820190508181036000830152613f988184613ef3565b905092915050565b7f4e487b7100000000000000000000000000000000000000000000000000000000600052603260045260246000fd5b600081549050919050565b60008190508160005260206000209050919050565b60008160001c9050919050565b6000819050919050565b600061401961401483613fef565b613ffc565b9050919050565b6000815461402d8161395c565b6140378186612eca565b9450600182166000811461405257600181146140685761409b565b60ff19831686528115156020028601935061409b565b61407185613b24565b60005b8381101561409357815481890152600182019150602081019050614074565b808801955050505b50505092915050565b600060a0830160008084015490506140bb81614006565b6140c86000870182612eb0565b506001840185830360208701526140df8382614020565b9250506002840185830360408701526140f88382614020565b9250506003840185830360608701526141118382614020565b92505060048401858303608087015261412a8382614020565b925050819250505092915050565b600061414483836140a4565b905092915050565b6000600582019050919050565b600061416482613fcf565b61416e8185612e85565b93508360208202850161418085613fda565b8060005b858110156141bb5784840389528161419c8582614138565b94506141a78361414c565b925060208a01995050600181019050614184565b50829750879550505050505092915050565b600060208201905081810360008301526141e78184614159565b905092915050565b7f456c656374696f6e7320617265206e6f742066696e6973686564207965742e00600082015250565b6000614225601f83613855565b9150614230826141ef565b602082019050919050565b6000602082019050818103600083015261425481614218565b9050919050565b7f53656e64657220697320746865206f776e65722e000000000000000000000000600082015250565b6000614291601483613855565b915061429c8261425b565b602082019050919050565b600060208201905081810360008301526142c081614284565b905091905056fea26469706673582212201cb70e2dec5cc906a7ea66f14afa1063251dc824e878a448652eefe291394c5964736f6c63430008130033",
  "immutableReferences": {},
  "source": "pragma solidity 0.8.19;\r\n\r\ncontract ChainMyVote {\r\n    address private owner;\r\n    uint private CANDIDATE_ID;\r\n    uint private VOTER_ID;\r\n\r\n    struct Candidate {\r\n        uint id;\r\n        string title;\r\n        string _address;\r\n        string party;\r\n        string logo;\r\n    }\r\n    \r\n    struct Voter {\r\n        uint id;\r\n        string brpNumber;\r\n        string email;\r\n        string firstName;\r\n        string lastName;\r\n        string brpPicture;\r\n        bool verified;\r\n    }\r\n    \r\n    // Candidate\r\n    Candidate[] private candidates;\r\n    mapping(uint => uint) private candidateVotes;\r\n\r\n    // Voter\r\n    address[] private voters;\r\n    mapping(string => bool) private brpExists;\r\n    mapping(address => bool) private voterExists;\r\n    mapping(address => Voter) private voterByAddress;\r\n    mapping(uint => Voter) private voterById;\r\n    mapping(uint => bool) private voterIdExists;\r\n    mapping(uint => address) voterAddressById;\r\n    mapping(address => bool) private voteCast;\r\n\r\n    // Elections finished\r\n    bool private electionsFinished;\r\n    Candidate[] private winners;\r\n\r\n    constructor() {\r\n        owner = msg.sender;\r\n    }\r\n\r\n    modifier isOwner() {\r\n        require(msg.sender == owner, \"Sender is not owner.\");\r\n        _;\r\n    }\r\n\r\n    modifier isNotOwner() {\r\n        require(msg.sender != owner, \"Sender is the owner.\");\r\n        _;\r\n    }\r\n\r\n    modifier voterIdDoesExist(uint id) {\r\n        require(voterIdExists[id], \"Voter id does not exist.\");\r\n        _;\r\n    }\r\n\r\n    modifier voterBrpDoesNotExist(string memory brpNumber) {\r\n        require(!brpExists[brpNumber], \"Voter BRP already exists.\");\r\n        _;\r\n    }\r\n\r\n    modifier isVerifiedVoter() {\r\n        require(\r\n            voterExists[msg.sender] && voterByAddress[msg.sender].verified, \r\n            \"Sender is not a verified voter.\"\r\n        );\r\n        _;\r\n    }\r\n\r\n    modifier voteIsNotCast() {\r\n        require(!voteCast[msg.sender], \"Vote is already cast.\");\r\n        _;\r\n    }\r\n\r\n    modifier electionsAreFinished() {\r\n        require(electionsFinished, \"Elections are not finished yet.\");\r\n        _;\r\n    }\r\n\r\n    modifier electionsAreNotFinished() {\r\n        require(!electionsFinished, \"Elections are finished.\");\r\n        _;\r\n    }\r\n\r\n    event CandidateAdded(Candidate candidate);\r\n\r\n    function addCandidate(\r\n        string memory title,\r\n        string memory _address,\r\n        string memory party,\r\n        string memory logo\r\n    ) electionsAreNotFinished isOwner public {\r\n        uint candidateId = ++CANDIDATE_ID;\r\n        Candidate memory candidate = Candidate(candidateId, title, _address, party, logo);\r\n        candidates.push(candidate);\r\n        candidateVotes[candidateId] = 0;\r\n        emit CandidateAdded(candidate);\r\n    }\r\n\r\n    function getCandidates() electionsAreNotFinished public view returns (Candidate[] memory) {\r\n        return candidates;\r\n    }\r\n\r\n    event VoterAdded(Voter);\r\n\r\n    function addVoter(\r\n        string memory brpNumber,\r\n        string memory email,\r\n        string memory firstName,\r\n        string memory lastName,\r\n        string memory brpPicture\r\n    ) electionsAreNotFinished isNotOwner voterBrpDoesNotExist(brpNumber) public {\r\n        uint voterId = ++VOTER_ID;\r\n        Voter memory voter = Voter(\r\n            voterId, brpNumber, email, firstName, lastName, brpPicture, false);\r\n        voters.push(msg.sender);\r\n        voterExists[msg.sender] = true;\r\n        voterByAddress[msg.sender] = voter;\r\n        voterById[voterId] = voter;\r\n        voterIdExists[voterId] = true;\r\n        voterAddressById[voterId] = msg.sender;\r\n        emit VoterAdded(voter);\r\n    }\r\n\r\n    event VoterVerified(Voter);\r\n\r\n    function verifyVoter(Voter memory voter) \r\n    electionsAreNotFinished isOwner voterIdDoesExist(voter.id) voterBrpDoesNotExist(voter.brpNumber) public {\r\n        Voter memory savedVoter = voterById[voter.id];\r\n        savedVoter.verified = true;\r\n        brpExists[savedVoter.brpNumber] = true;\r\n        address voterAddress = voterAddressById[savedVoter.id];\r\n        voterById[savedVoter.id] = savedVoter;\r\n        voterByAddress[voterAddress] = savedVoter;\r\n        emit VoterVerified(savedVoter);\r\n    }\r\n\r\n    function getVoters() electionsAreNotFinished isOwner public view returns (Voter[] memory) {\r\n        Voter[] memory result = new Voter[](voters.length);\r\n        for (uint i = 0; i < voters.length; i++) {\r\n            result[i] = voterByAddress[voters[i]];\r\n        }\r\n        return result;\r\n    }\r\n\r\n    function getVoterStatus() electionsAreNotFinished isNotOwner public view returns (string memory) {\r\n        if (voteCast[msg.sender]) return \"vote-cast\";\r\n        if (voterExists[msg.sender]) {\r\n            Voter memory voter = voterByAddress[msg.sender];\r\n            if (voter.verified) return \"verified\";\r\n            return \"unverified\";\r\n        }\r\n        return \"unregistered\";\r\n    }\r\n\r\n    event VoteCast(bool success);\r\n\r\n    function castVote(uint candidateId) electionsAreNotFinished public {\r\n        candidateVotes[candidateId]++;\r\n        voteCast[msg.sender] = true;\r\n        emit VoteCast(true);\r\n    }\r\n\r\n    function getVotes(uint candidateId) isOwner public view returns (uint) {\r\n        return candidateVotes[candidateId];\r\n    }\r\n\r\n    event ElectionsFinished(Candidate[] winners);\r\n\r\n    function finishElections() electionsAreNotFinished isOwner() public {\r\n        uint maxVotes = 0;\r\n        // get max votes\r\n        for (uint i = 0; i < candidates.length; i++) {\r\n            uint votes = candidateVotes[candidates[i].id];\r\n            if (votes > maxVotes) {\r\n                maxVotes = votes;\r\n            }\r\n        }\r\n\r\n        // get winner ids\r\n        for (uint i = 0; i < candidates.length; i++) {\r\n            Candidate memory candidate = candidates[i];\r\n            if (candidateVotes[candidate.id] == maxVotes) {\r\n                winners.push(candidate);\r\n            }\r\n        }\r\n\r\n        electionsFinished = true;\r\n        emit ElectionsFinished(winners);\r\n\r\n        // Candidate memory _winner;\r\n        // uint maxVotes = 0;\r\n        // for (uint i = 0; i < candidates.length; i++) {\r\n        //     Candidate memory candidate = candidates[i];\r\n        //     uint votes = candidateVotes[candidate.id];\r\n        //     if (votes > maxVotes) {\r\n        //         maxVotes = votes;\r\n        //         _winner = candidate;\r\n        //     }\r\n        // }\r\n        // winner = _winner;\r\n        // electionsFinished = true;\r\n        // emit ElectionsFinished(winner);\r\n    }\r\n\r\n    function areElectionsFinished() public view returns (bool) {\r\n        return electionsFinished;\r\n    }\r\n\r\n    function getWinners() electionsAreFinished public view returns (Candidate[] memory) {\r\n        return winners;\r\n    }\r\n\r\n    struct AccountStatus {\r\n        string accountType;\r\n        bool electionsFinished;\r\n        string voteStatus;\r\n    }\r\n\r\n    function getAccountStatus() public view returns (AccountStatus memory) {\r\n        string memory accountType;\r\n        string memory voteStatus = \"NILL\";\r\n\r\n        if (msg.sender == owner) {\r\n            accountType = \"owner\";\r\n        } else if (voterExists[msg.sender]) {\r\n            accountType = \"voter\";\r\n            if (voteCast[msg.sender]) {\r\n                voteStatus = \"vote-cast\";\r\n            } else if (voterExists[msg.sender]) {\r\n                Voter memory voter = voterByAddress[msg.sender];\r\n                if (voter.verified) voteStatus = \"verified\";\r\n                else voteStatus = \"unverified\";\r\n            }\r\n        } else {\r\n            accountType = \"unregistered\";\r\n        }\r\n\r\n        return AccountStatus(accountType, electionsFinished, voteStatus);\r\n    }\r\n}",
  "sourcePath": "E:\\Documents\\Greenwich\\COMP1256 MSc Project\\Code\\chain-my-vote\\contracts\\ChainMyVote.sol",
  "compiler": {
    "name": "solc",
    "version": "0.8.19+commit.7dd6d404.Emscripten.clang"
  },
  "schemaVersion": "3.4.14",
  "updatedAt": "2023-11-02T13:18:08.065Z",
  "networkType": "ethereum",
  "devdoc": {
    "kind": "dev",
    "methods": {},
    "version": 1
  },
  "userdoc": {
    "kind": "user",
    "methods": {},
    "version": 1
  }
}