{
  "contractName": "ChainMyVote",
  "abi": [
    {
      "inputs": [],
      "stateMutability": "nonpayable",
      "type": "constructor"
    },
    {
      "anonymous": false,
      "inputs": [
        {
          "components": [
            {
              "internalType": "uint256",
              "name": "id",
              "type": "uint256"
            },
            {
              "internalType": "string",
              "name": "title",
              "type": "string"
            },
            {
              "internalType": "string",
              "name": "_address",
              "type": "string"
            },
            {
              "internalType": "string",
              "name": "party",
              "type": "string"
            },
            {
              "internalType": "string",
              "name": "logo",
              "type": "string"
            }
          ],
          "indexed": false,
          "internalType": "struct ChainMyVote.Candidate",
          "name": "candidate",
          "type": "tuple"
        }
      ],
      "name": "CandidateAdded",
      "type": "event"
    },
    {
      "inputs": [
        {
          "internalType": "string",
          "name": "title",
          "type": "string"
        },
        {
          "internalType": "string",
          "name": "_address",
          "type": "string"
        },
        {
          "internalType": "string",
          "name": "party",
          "type": "string"
        },
        {
          "internalType": "string",
          "name": "logo",
          "type": "string"
        }
      ],
      "name": "addCandidate",
      "outputs": [],
      "stateMutability": "nonpayable",
      "type": "function"
    },
    {
      "inputs": [],
      "name": "senderIsOwner",
      "outputs": [
        {
          "internalType": "bool",
          "name": "",
          "type": "bool"
        }
      ],
      "stateMutability": "view",
      "type": "function",
      "constant": true
    },
    {
      "inputs": [],
      "name": "getCandidates",
      "outputs": [
        {
          "components": [
            {
              "internalType": "uint256",
              "name": "id",
              "type": "uint256"
            },
            {
              "internalType": "string",
              "name": "title",
              "type": "string"
            },
            {
              "internalType": "string",
              "name": "_address",
              "type": "string"
            },
            {
              "internalType": "string",
              "name": "party",
              "type": "string"
            },
            {
              "internalType": "string",
              "name": "logo",
              "type": "string"
            }
          ],
          "internalType": "struct ChainMyVote.Candidate[]",
          "name": "",
          "type": "tuple[]"
        }
      ],
      "stateMutability": "view",
      "type": "function",
      "constant": true
    }
  ],
  "bytecode": "0x608060405234801561001057600080fd5b50336000806101000a81548173ffffffffffffffffffffffffffffffffffffffff021916908373ffffffffffffffffffffffffffffffffffffffff160217905550610ef8806100606000396000f3fe608060405234801561001057600080fd5b50600436106100415760003560e01c806306a49fce1461004657806342b03cc9146100645780635172528c14610080575b600080fd5b61004e61009e565b60405161005b91906107cb565b60405180910390f35b61007e60048036038101906100799190610936565b6103dd565b005b61008861057e565b6040516100959190610a28565b60405180910390f35b606060008054906101000a900473ffffffffffffffffffffffffffffffffffffffff1673ffffffffffffffffffffffffffffffffffffffff163373ffffffffffffffffffffffffffffffffffffffff161461012e576040517f08c379a000000000000000000000000000000000000000000000000000000000815260040161012590610aa0565b60405180910390fd5b6002805480602002602001604051908101604052809291908181526020016000905b828210156103d457838290600052602060002090600502016040518060a00160405290816000820154815260200160018201805461018d90610aef565b80601f01602080910402602001604051908101604052809291908181526020018280546101b990610aef565b80156102065780601f106101db57610100808354040283529160200191610206565b820191906000526020600020905b8154815290600101906020018083116101e957829003601f168201915b5050505050815260200160028201805461021f90610aef565b80601f016020809104026020016040519081016040528092919081815260200182805461024b90610aef565b80156102985780601f1061026d57610100808354040283529160200191610298565b820191906000526020600020905b81548152906001019060200180831161027b57829003601f168201915b505050505081526020016003820180546102b190610aef565b80601f01602080910402602001604051908101604052809291908181526020018280546102dd90610aef565b801561032a5780601f106102ff5761010080835404028352916020019161032a565b820191906000526020600020905b81548152906001019060200180831161030d57829003601f168201915b5050505050815260200160048201805461034390610aef565b80601f016020809104026020016040519081016040528092919081815260200182805461036f90610aef565b80156103bc5780601f10610391576101008083540402835291602001916103bc565b820191906000526020600020905b81548152906001019060200180831161039f57829003601f168201915b50505050508152505081526020019060010190610150565b50505050905090565b60008054906101000a900473ffffffffffffffffffffffffffffffffffffffff1673ffffffffffffffffffffffffffffffffffffffff163373ffffffffffffffffffffffffffffffffffffffff161461046b576040517f08c379a000000000000000000000000000000000000000000000000000000000815260040161046290610aa0565b60405180910390fd5b600060016000815461047c90610b4f565b919050819055905060006040518060a0016040528083815260200187815260200186815260200185815260200184815250905060028190806001815401808255809150506001900390600052602060002090600502016000909190919091506000820151816000015560208201518160010190816104fa9190610d43565b5060408201518160020190816105109190610d43565b5060608201518160030190816105269190610d43565b50608082015181600401908161053c9190610d43565b5050507fa9ed462170f82552afb3df67b16ffeff6c98e622175e798bd9b50fe32fed1c868160405161056e9190610ea0565b60405180910390a1505050505050565b60008060009054906101000a900473ffffffffffffffffffffffffffffffffffffffff1673ffffffffffffffffffffffffffffffffffffffff163373ffffffffffffffffffffffffffffffffffffffff1614905090565b600081519050919050565b600082825260208201905092915050565b6000819050602082019050919050565b6000819050919050565b61061481610601565b82525050565b600081519050919050565b600082825260208201905092915050565b60005b83811015610654578082015181840152602081019050610639565b60008484015250505050565b6000601f19601f8301169050919050565b600061067c8261061a565b6106868185610625565b9350610696818560208601610636565b61069f81610660565b840191505092915050565b600060a0830160008301516106c2600086018261060b565b50602083015184820360208601526106da8282610671565b915050604083015184820360408601526106f48282610671565b9150506060830151848203606086015261070e8282610671565b915050608083015184820360808601526107288282610671565b9150508091505092915050565b600061074183836106aa565b905092915050565b6000602082019050919050565b6000610761826105d5565b61076b81856105e0565b93508360208202850161077d856105f1565b8060005b858110156107b9578484038952815161079a8582610735565b94506107a583610749565b925060208a01995050600181019050610781565b50829750879550505050505092915050565b600060208201905081810360008301526107e58184610756565b905092915050565b6000604051905090565b600080fd5b600080fd5b600080fd5b600080fd5b7f4e487b7100000000000000000000000000000000000000000000000000000000600052604160045260246000fd5b61084382610660565b810181811067ffffffffffffffff821117156108625761086161080b565b5b80604052505050565b60006108756107ed565b9050610881828261083a565b919050565b600067ffffffffffffffff8211156108a1576108a061080b565b5b6108aa82610660565b9050602081019050919050565b82818337600083830152505050565b60006108d96108d484610886565b61086b565b9050828152602081018484840111156108f5576108f4610806565b5b6109008482856108b7565b509392505050565b600082601f83011261091d5761091c610801565b5b813561092d8482602086016108c6565b91505092915050565b600080600080608085870312156109505761094f6107f7565b5b600085013567ffffffffffffffff81111561096e5761096d6107fc565b5b61097a87828801610908565b945050602085013567ffffffffffffffff81111561099b5761099a6107fc565b5b6109a787828801610908565b935050604085013567ffffffffffffffff8111156109c8576109c76107fc565b5b6109d487828801610908565b925050606085013567ffffffffffffffff8111156109f5576109f46107fc565b5b610a0187828801610908565b91505092959194509250565b60008115159050919050565b610a2281610a0d565b82525050565b6000602082019050610a3d6000830184610a19565b92915050565b600082825260208201905092915050565b7f53656e646572206973206e6f74206f776e65722e000000000000000000000000600082015250565b6000610a8a601483610a43565b9150610a9582610a54565b602082019050919050565b60006020820190508181036000830152610ab981610a7d565b9050919050565b7f4e487b7100000000000000000000000000000000000000000000000000000000600052602260045260246000fd5b60006002820490506001821680610b0757607f821691505b602082108103610b1a57610b19610ac0565b5b50919050565b7f4e487b7100000000000000000000000000000000000000000000000000000000600052601160045260246000fd5b6000610b5a82610601565b91507fffffffffffffffffffffffffffffffffffffffffffffffffffffffffffffffff8203610b8c57610b8b610b20565b5b600182019050919050565b60008190508160005260206000209050919050565b60006020601f8301049050919050565b600082821b905092915050565b600060088302610bf97fffffffffffffffffffffffffffffffffffffffffffffffffffffffffffffffff82610bbc565b610c038683610bbc565b95508019841693508086168417925050509392505050565b6000819050919050565b6000610c40610c3b610c3684610601565b610c1b565b610601565b9050919050565b6000819050919050565b610c5a83610c25565b610c6e610c6682610c47565b848454610bc9565b825550505050565b600090565b610c83610c76565b610c8e818484610c51565b505050565b5b81811015610cb257610ca7600082610c7b565b600181019050610c94565b5050565b601f821115610cf757610cc881610b97565b610cd184610bac565b81016020851015610ce0578190505b610cf4610cec85610bac565b830182610c93565b50505b505050565b600082821c905092915050565b6000610d1a60001984600802610cfc565b1980831691505092915050565b6000610d338383610d09565b9150826002028217905092915050565b610d4c8261061a565b67ffffffffffffffff811115610d6557610d6461080b565b5b610d6f8254610aef565b610d7a828285610cb6565b600060209050601f831160018114610dad5760008415610d9b578287015190505b610da58582610d27565b865550610e0d565b601f198416610dbb86610b97565b60005b82811015610de357848901518255600182019150602085019450602081019050610dbe565b86831015610e005784890151610dfc601f891682610d09565b8355505b6001600288020188555050505b505050505050565b600060a083016000830151610e2d600086018261060b565b5060208301518482036020860152610e458282610671565b91505060408301518482036040860152610e5f8282610671565b91505060608301518482036060860152610e798282610671565b91505060808301518482036080860152610e938282610671565b9150508091505092915050565b60006020820190508181036000830152610eba8184610e15565b90509291505056fea26469706673582212206a36374c70335294e8bce94b4ac974d4acd302c648fb22190952ea5a8344ae7064736f6c63430008130033",
  "immutableReferences": {},
  "source": "pragma solidity 0.8.19;\r\n\r\ncontract ChainMyVote {\r\n    address private owner;\r\n    uint private id;\r\n    \r\n    // Candidate\r\n    Candidate[] private candidates;\r\n\r\n    constructor() {\r\n        owner = msg.sender;\r\n    }\r\n\r\n    modifier isOwner() {\r\n        require(msg.sender == owner, \"Sender is not owner.\");\r\n        _;\r\n    }\r\n\r\n    event CandidateAdded(Candidate candidate);\r\n\r\n    function addCandidate(\r\n        string memory title,\r\n        string memory _address,\r\n        string memory party,\r\n        string memory logo\r\n    ) isOwner public {\r\n        uint candidateId = ++id;\r\n        Candidate memory candidate = Candidate(candidateId, title, _address, party, logo);\r\n        candidates.push(candidate);\r\n        emit CandidateAdded(candidate);\r\n    }\r\n\r\n    function senderIsOwner() public view returns (bool) {\r\n        return msg.sender == owner;\r\n    }\r\n\r\n    struct Candidate {\r\n        uint id;\r\n        string title;\r\n        string _address;\r\n        string party;\r\n        string logo;\r\n    }\r\n\r\n    function getCandidates() isOwner public view returns (Candidate[] memory) {\r\n        return candidates;\r\n    }\r\n}",
  "sourcePath": "E:\\Documents\\Greenwich\\COMP1256 MSc Project\\Code\\chain-my-vote\\contracts\\ChainMyVote.sol",
  "compiler": {
    "name": "solc",
    "version": "0.8.19+commit.7dd6d404.Emscripten.clang"
  },
  "schemaVersion": "3.4.14",
  "updatedAt": "2023-07-24T19:23:26.528Z",
  "networkType": "ethereum",
  "devdoc": {
    "kind": "dev",
    "methods": {},
    "version": 1
  },
  "userdoc": {
    "kind": "user",
    "methods": {},
    "version": 1
  }
}